:020000040800F2
:1000000000200020C1010008A9020008B102000878
:10001000B9020008C1020008C9020008000000007F
:10002000000000000000000000000000D1020008F5
:10003000D902000800000000E1020008E9020008FF
:10004000F1020008F1020008F1020008F1020008C4
:10005000F1020008F1020008F1020008F1020008B4
:10006000F1020008F1020008F1020008F1020008A4
:10007000F1020008F1020008F1020008F102000894
:10008000F1020008F1020008F1020008000000007F
:10009000000000000000000000000000F102000865
:1000A000F1020008F1020008F1020008F102000864
:1000B000F1020008F1020008F1020008F102000854
:1000C000F1020008F1020008F1020008F102000844
:1000D000F1020008F1020008F1020008F102000834
:1000E000F1020008F1020008F1020008F102000824
:1000F000F1020008F102000800000000000000000A
:10010000F102000800000000F1020008F1020008FE
:10011000F1020008F1020008F1020008F1020008F3
:10012000F1020008F1020008F1020008F1020008E3
:100130002C05000800000020000000000000002046
:100140000000000080B489B000AFF860B9607A6048
:10015000BB68FB61FB68BB6100237B610AE0FB6954
:100160001A1DFA61BA69111DB96112681A607B69BA
:1001700004337B617A697B689A42F0D32437BD46A9
:100180005DF8047B704700BF80B485B000AF786035
:1001900039607B68FB600023BB6007E0FB681A1DC9
:1001A000FA6000221A60BB680433BB60BA683B681F
:1001B0009A42F3D31437BD465DF8047B704700BF05
:1001C00080B584B000AF2B4BFB6013E0FB681A1DB9
:1001D000FA601B68BB60FB681A1DFA601B687B60D5
:1001E000FB681A1DFA601B683B60B86879683A685A
:1001F000FFF7A8FFFA68204B9A42E7D31F4BFB603A
:100200000DE0FB681A1DFA601B687B60FB681A1D15
:10021000FA601B683B6078683968FFF7B5FFFA68D9
:10022000174B9A42EDD3174B174A1A60174B01220E
:100230001A60174B15221A60164B10221A60164BC3
:1002400015221A60154B164A1A6000BF134B1B6823
:1002500003F40033002BF9D0104B1B6803F000733C
:10026000002BF3D00F4B4FF480021A6000F044F8DB
:10027000FEE700BF300100083C0100083C01000817
:100280004401000804100240024011042C100240F6
:10029000141002401C1002401810024000100240CE
:1002A0000000010104E100E080B400AFFEE700BF00
:1002B00080B400AFFEE700BF80B400AFFEE700BF30
:1002C00080B400AFFEE700BF80B400AFFEE700BF20
:1002D00080B400AFFEE700BF80B400AFFEE700BF10
:1002E00080B400AFFEE700BF80B400AFFEE700BF00
:0802F00080B400AFFEE700BF7F
:1002F800F0B585B000AF214C214D2560214C224D31
:100308002560224C224D2560224C1D4D256032244B
:10031800BC73BE7B3446013CBC60F4B24FF00005B0
:10032800690141EAD4616001F0B24FF000014B016C
:1003380043EAD063420133469B0003330733DB08AB
:10034800DB00ADEB030D6B4603339B089B007B6022
:100358007B68184600F040F80023FB7309E0FA7B3D
:100368007B6853F82230184600F016F8FB7B0133FF
:10037800FB73FB7B312BF2D9EEE700BF000801408D
:1003880043444444040801404B444444041001409D
:0803980033444444040C01400D
:1003A00080B584B000AF78604FF00043FB6000235D
:1003B000FB720FE07A68FB681340002B02D000F05C
:1003C0005BF801E000F088F8FB685B08FB60FB7AF3
:1003D0000133FB72FB7A172BECD91037BD4680BD79
:1003E00080B485B000AF78600023BB600023FB734E
:1003F00012E0FB7B9B007A681344BA681A60FA7BB0
:1004000013469B0013441B0213449A0113449B019F
:10041000BB60FB7B0133FB73FB7B312BE9D91437CA
:08042000BD465DF8047B704746
:1004280080B485B000AF13460246FA710A46BA7125
:100438007B710023FB60FB79FA681344FB60FB685F
:100448001B02FB60BB79FA681344FB60FB681B0264
:10045800FB607B79FA681344FB60FB681B02FB6056
:10046800FB6818461437BD465DF8047B704700BF2B
:1004780080B400AF2DE9030012481349016000BFA2
:1004880000BF00BF00BF00BF00BF00BF00BF00BF6C
:1004980000BF00BF00BF00BF00BF00BF00BF0B49C7
:1004A800016000BF00BF00BF00BF00BF00BF00BFAA
:1004B80000BF00BF00BF00BF00BF03BCBD465DF862
:1004C800047B7047100C014000020000000000028D
:1004D80080B400AF2DE9030010481149016000BF46
:1004E80000BF00BF00BF00BF4FF00071016000BF38
:1004F80000BF00BF00BF00BF00BF00BF00BF00BFFC
:1005080000BF00BF00BF00BF00BF00BF00BF00BFEB
:1005180000BF03BCBD465DF8047B7047100C01406A
:0405280000020000CD
:04000005080001C12D
:00000001FF
